:100000004FC0E6C168C067C066C065C064C063C059
:1000100062C061C060C05FC05EC05DC05CC0040300
:100020000904120353007000610072006B00460067
:1000300075006E001403410056005200200053006A
:100040007400690063006B001201100100000008D9
:100050004F1B020000010102000109022200010100
:1000600000801909040000010300000009210101BA
:1000700000012223000705810308000A0501090683
:10008000A101050719E029E715002501750195086B
:100090008102950175082565190029658100C00058
:1000A00011241FBECFE5D2E0DEBFCDBF10E0A0E639
:1000B000B0E0E0E1FAE002C005900D92A436B1078D
:1000C000D9F710E0A4E6B0E001C01D92A43BB1074F
:1000D000E1F70BD39BC494CF85B7836085BF8BB703
:1000E00080648BBF83EC80938A0008951F93DC01AA
:1000F000162F8091620084FF0AC080918A0098E8E0
:10010000892780938A00912FEBE8F0E007C08AE509
:1001100080936200F8CF8D91819391509923D9F704
:100120008BE890E0612F3DD11C5F109362001F911E
:1001300008950F931F93CF93DF9390919A00191610
:100140000CF0B1C020919700809196008D3209F09B
:10015000A0C08AE5809361009B3009F09AC0CCE092
:10016000D0E0C21BD109C256DF4F8881807609F0EA
:1001700082C0109288008981882359F410928900E6
:1001800088E890E0909399008093980090E822E0AE
:1001900079C0853021F48A8180939B006AC08630C3
:1001A00009F04CC08B81813019F488E490E01DC0C7
:1001B000823049F48AE590E090939900809398000A
:1001C00090EC22E25FC0833019F58A81882349F4DC
:1001D0008EE190E0909399008093980090EC24E059
:1001E00051C0813049F482E290E09093990080936D
:1001F000980090EC22E146C0823009F041C084E3CF
:1002000090E0909399008093980090EC24E13AC09C
:10021000813249F48CE690E09093990080939800A5
:1002200090EC29E02FC0823259F58CE790E0909352
:1002300099008093980090EC23E224C0883019F450
:100240008DE990E00AC0893021F48A8180939D0075
:1002500010C08A3049F488E890E090939900809328
:10026000980090E821E00EC08B3019F483EC809365
:100270008A0090E806C0CE0108D2282F90E802C07C
:1002800090EC20E08F81882339F48E81821728F04A
:1002900003C090E880E001C0822F909365008093B6
:1002A000600010929A008091610084FF49C08091A3
:1002B00060008F3F09F444C0182F893008F018E01F
:1002C000811B809360008091650080FD02C00BE47B
:1002D00001C003EC8F5F80936500209198003091FE
:1002E000990086FD05C0D901912FE0E8F0E011C02A
:1002F000A0E8B0E080E090E006C0F901E80FF91F47
:10030000E491ED9301961817C1F705C08D91819383
:1003100091509923D9F7F901E10FF11DF09399005C
:10032000E093980080E890E0612F3BD0183019F0FE
:100330008FEF8093600000937F001C5F109361003B
:100340009AE086B3857031F49150D9F710929B00F2
:100350001092950010E0992309F411E08091640057
:10036000811729F0112309F4E7D210936400DF917B
:10037000CF911F910F910895A82FB92F80E090E0A1
:1003800041E050EA60956F5F58F42D9138EF822775
:100390009795879510F0842795273F5FC8F3F3CF93
:1003A0000895EADF8D939D930895A6E08827992705
:1003B000AA9569F00197E1F3B099FCCFB09BFECF0D
:1003C00081E09927A6B3019611F0A570D9F7089599
:1003D000CF93CFB7CF93B09BFECFB09B0BC0B09B5A
:1003E00009C0B09B07C0B09B05C0B09B03C0B09BC9
:1003F00001C0D5C00F92DF93C0919700DD27C25690
:10040000DF4F012EB09B03C0DF910F90E6CF2F93FB
:100410000F931F934F932FEF4F6F06B300FB20F9FD
:100420005F933F9350E03BE065C016B3012650292F
:1004300050FDC89556B3012700FB25F92F7306B36D
:10044000B1F05027102710FB26F906B22230F0F049
:1004500000C016B3012700FB27F90126502906B278
:100460002430E8F54F77206816B30000F6CF502708
:100470004F7D206206B2102F000000C006B3002698
:100480005029102710FB26F906B2E2CF4F7B06B3A6
:10049000206400C0DACF01265029157006B269F138
:1004A0004E7F2160012F16B328C0002650294D7FB2
:1004B00006B22260102F29C0012650294B7F06B2B8
:1004C0002460012F2DC016B301265029477F2860D4
:1004D000000006B22EC04F7E06B3206130C0422716
:1004E00006B3499300265029102706B24FEF10FBA0
:1004F00020F9297F16B379F2157059F10126502998
:1005000006B2012700FB21F9237F06B371F2002612
:1005100050293150D0F006B2102710FB22F9277E67
:1005200016B351F201265029012700FB06B223F928
:100530002F7C49F2000006B3102710FB24F9002697
:10054000502906B22F7939F270CF10E41ABF002774
:1005500019C03B503195C31BD04010E41ABF08812D
:10056000033C09F10B34F9F0209195001981110F2A
:100570001213EDCF4A81441F093651F10D3211F0AB
:10058000013E29F700939C003F915F914F911F918D
:100590000F912F91DF910F90CAB7C6FD1CCFCF915D
:1005A000CFBFCF91189500919C00002369F3109163
:1005B0009A00112379F534307AF130939A00009340
:1005C0009600109197003BE0311B3093970024C0B8
:1005D00000919A000130F4F40AE54F7049F430912B
:1005E000610034FD1AC000936100CFE7D0E019C06C
:1005F0003091620034FD11C000936200CAE8D0E07F
:1006000010C0052710E000C021C0052710E0C895E4
:1006100008BB14C03AE501C032ED032EC0E0D0E0C3
:1006200032E017B31560C09A08B317BB55E020E855
:100630004FEF20FF052708BB279517951C3F28F78C
:1006400000004552B0F720FF0527279508BB1795F6
:100650001C3FB8F629913A9561F70A7F10919B00EB
:10066000110F08BBC250D04011F01093950010E458
:100670001ABF016017B31A7F402F4A7F54E05A9582
:10068000F1F708BB17BB48BB7FCFFC0189E690E0C0
:10069000909399008093980080818076803219F53C
:1006A0008181813079F4E0917D00F0917E00309776
:1006B00011F480E001C080811092690080936A008B
:1006C00082E00895823041F48BE690E090939900A7
:1006D0008093980081E008958A3029F48381809383
:1006E0006B0080E0089580E008958F929F92AF9212
:1006F000BF92CF92DF92EF92FF920F931F93CF930F
:10070000DF93E199FECF1FBA1EBAE09A8DB38F3FF7
:1007100009F081BF87B38A6187BBC39A80E090E00C
:1007200023EB31EFF9013197F1F70196843191050F
:10073000C9F7C398C19A80E090E023EB31EFF9014B
:100740003197F1F7019684319105C9F7C198C49AA0
:1007500080E090E023EB31EFF9013197F1F701965A
:1007600084319105C9F7C498BC98B89A80E090E0AC
:1007700023EB31EFF9013197F1F7019684319105BF
:10078000C9F7B8982EE088E190E00FB6F894A895E4
:1007900081BD0FBE21BD8BE080BF82E987B987E8AC
:1007A00086B99ADC7894B4E08B2EAA24A394992479
:1007B0009A94CAE7D0E0A7E2FA2EF3E0CF2EE3E95D
:1007C000BE2E72E9D72E0BE268E2E62EA895B1DCC8
:1007D0008091620084FF20C0E0917D00F0917E0056
:1007E0003097D1F080811092690080936A0089E689
:1007F00090E062E07BDCE0917D00F0917E0031963C
:10080000F0937E00E0937D00319781818F3F21F44A
:1008100010927E0010927D0008B602FE0DC088BEC8
:10082000809166008F5F809366008F3128F0109270
:100830006600A0926C00369A80916C00882331F299
:100840003699C4CF10926C0084B195B190927C001F
:1008500010927B0010916300123039F4D0937E0027
:10086000C0937D0000937A0006C0D0937E00C093B1
:100870007D00E0927A009C0136952795880F991F9C
:10088000280F391FE0917D00F0917E003297C90159
:100890006AE070E0A7D0482FC9016AE070E0A2D0FA
:1008A000CB019B011182442319F4DF01F08203C0C4
:1008B000DF01435E40833297892B49F7A0937D0087
:1008C000B0937E00123069F5209167003091680086
:1008D0002F5F3F4F309368002093670021503040D6
:1008E0000E93FD013297C9016AE070E07BD0482F7A
:1008F000C9016AE070E076D0CB019B0111824423EC
:1009000021F46E2F5F2FF08204C06E2F5F2F435EA5
:1009100040833297892B39F760937D0050937E0096
:1009200007C0133029F482E080936300D7B84ECF1C
:10093000C0926300B7B84ACFDF92EF92FF920F9355
:100940001F93CF93DF9300E010E8D12EEE24FF2415
:100950001D2D100F11BF29DDEC0189E0C433D8072C
:100960000CF0102FD6940894E11CF11C88E0E816D6
:10097000F10411F0012FECCF115011BF1F5FE12ED8
:10098000FF240894E11CF11C13C00FDD9C012453CB
:10099000394037FF03C0309521953F4F2C173D0755
:1009A00014F09E0101C011B781B78F5F81BFE901CB
:1009B00081B790E0E816F90644F711BF81B7E199D5
:1009C000FECF1CBA1FBA1EBA8DBB0FB6F894E29ABE
:1009D000E19A0FBEDF91CF911F910F91FF90EF90A1
:1009E000DF900895AA1BBB1B51E107C0AA1FBB1FC4
:1009F000A617B70710F0A61BB70B881F991F5A95AB
:100A0000A9F780959095BC01CD010895F894FFCF8A
:040A1000FF5A5A022D
:00000001FF
